:10000000E01A00205948020069C000006DC00000DD
:10001000A70A02020002000004180FAC5065B001EC
:1000200000000000000000000000000000000000D0
:1000300000000000B0EA0300000000000000000023
:100040000000000000000000FFFFFFFFFFFFFFFFB8
:10005000FFFFFFFFFFFFFFFFFFFFFFFFFFFFFFFFB0
:1000600000E00F000100000000001000FFFFFFFF94
:10007000FFFFFFFF1C000000000000000000000068
:1000800050670020505B0020505B0020505B002038
:10009000E01A0020303B0400048E03008011002091
:0C00A000481100200000100050670020F4
:10020000E01A00205948020069C000006DC00000DB
:1002100075C0000071C0000079C0000055480200A0
:100220005548020055480200554802005548020052
:100230007DC00000554802005548020055480200A4
:10024000FDD900005D1D020061C30000F0C0000088
:1002500021180200C91D0200691D0200811D020053
:10026000611D020031D1000005D2000021F0000024
:100270003D9C0100F0C00000F0C00000219C000087
:10028000F0C00000F0C0000029D20000A57A0000F4
:10029000F0C00000F0C00000F0C00000F0C000009E
:1002A000F0C00000F0C00000F0C00000F0C000008E
:1002B000CD1D0200651D020081D700000D1E020049
:1002C000F0C0000039D90100F0C00000F0C000000B
:1002D000F0C00000F0C00000F0C00000F0C000005E
:1002E000F0C00000F0C00000F0C00000F0C000004E
:1002F000F0C00000F0C00000F0C00000F0C000003E
:0C030000F0C00000F0C0000055480200F2
:10030C00F8B500BFF8BC08BC9E467047F8B500BFF6
:10031C00F8BC08BC9E46704710B5054C237833B921
:10032C00044B13B10448AFF300800123237010BDBC
:10033C00D0210020000000003834040008B5034B25
:10034C001BB103490348AFF3008008BD0000000057
:10035C00D421002038340400154B002B08BF134B5C
:10036C009D46A3F5803A00218B460F461348144A4C
:10037C00121A38F026FD0F4B002B00D098470E4B6D
:10038C00002B00D098470020002104000D000D48E0
:10039C00002802D00C48AFF3008038F0E3FC2000BA
:1003AC00290019F0D5FE38F0C9FC00BF0000080088
:1003BC00E01A00200000000000000000D021002006
:1003CC00505B0020000000000000000030B585B03C
:1003DC00054611490120012405F0A4FE00940DF1FD
:1003EC000F0300220621284602F096FD50B99DF815
:1003FC000F504DB10949204605F094FE084B4FF4BF
:10040C0000721A6005B030BD2046064905F08AFE20
:10041C00284607F04FFBF5E791920300C3920300C7
:10042C006CA00046CD9203000149012005F07ABE74
:10043C00619003000149012005F074BE9490030003
:10044C0038B5124C124D23680133236000232B70F6
:10045C0001F0FCF802280DD042F2107128462BF066
:10046C006FFF01F0EFF80B490246BDE83840012060
:10047C0005F058BE2368DB0704D506F073FE064969
:10048C000348ECE706F0A6FEF9E700BFEC210020DC
:10049C00DC3C0020649303008038010030B54FF041
:1004AC007E6085B038F0A8FC2023012401930DF167
:1004BC000E0300250093172241F2A2034FF61041C0
:1004CC0020468DF80E508DF80F4002F0D2FC1149E9
:1004DC000246204605F026FE102300932A460DF115
:1004EC000F030621204602F0B4FC0B4902462046BD
:1004FC0005F018FE07F08EFA084B09486422DA66FC
:10050C002BF012FF42F2107106482BF019FF05B0C8
:10051C0030BD00BF109103004391030000840140E3
:10052C00D43C0020DC3C002030B5154D85B00024B7
:10053C002C7001F08BF8022817D100900DF10E03EE
:10054C0022460321012002F0E7FCBDF80E0048B161
:10055C0020460BF009FE4FF47A6128462BF0F0FE92
:10056C0005B030BD0BF0DCFDFAE714F013FE054BC3
:10057C000090054A0549012005F0D4FDF0E700BFC5
:10058C00D43C002005060400489003004D90030065
:10059C0000B58BB006F056FE224B234900221A7090
:1005AC00224B9A680346012005F0BCFD07F088FA3F
:1005BC000DF1260303930DF1230302930DF1220396
:1005CC0001930DF1210300930DF11F0208AB0DF106
:1005DC001E0109A807F07CFB9DF8231004919DF8DF
:1005EC00221003919DF8211002919DF82010019189
:1005FC009DF81F109DF81E30BDF82420009101209D
:10060C000B4905F08FFD01F021F814F0C3FD094BE7
:10061C000090094A0949012005F084FD0BB05DF8F2
:10062C0004FB00BFCC3C0020EA92030000200440F5
:10063C004293030005060400489003004D9003000C
:10064C00912808B504D100200BF07CFD002008BDDA
:10065C009028FBD100200BF063FDF7E707B5054BA5
:10066C000090054A0549012005F05CFD03B05DF8DA
:10067C0004FB00BFDB070400489003004D9003000F
:10068C0007B500230093044A044B0549012005F0EB
:10069C0049FD03B05DF804FBD9920300DB070400AD
:1006AC004D900300FFF792BE09B9FFF78FBE70475C
:1006BC007FB506460D4601201449012405F032FD94
:1006CC000DF10E03009400220621304602F024FCAA
:1006DC009DF80E30BBB1B5B904AB2A4603F8015DE9
:1006EC0008210094304602F017FC60B99DF80F20E9
:1006FC0007492046013A05F015FD9DF80F00013819
:10070C0080B207F0D7F904B070BD00BFC9900300E8
:10071C00029103007047704711B902482BF004BED8
:10072C00704700BFCC3C00202DE9F3412149224EFB
:10073C000546012005F0F6FC284638F052FB1F490F
:10074C000246012005F0EEFC0024284638F049FB57
:10075C00A04227D828461A4C1A4F1B4E06F094FF7D
:10076C000025A046C5EBC50343443946B3F8052024
:10077C00012005F0D7FC6178E37822790191A1780A
:10078C0000910120314605F0CDFC013514F8072B02
:10079C000E49012005F0C6FC102DE3D1012002B05A
:1007AC00BDE8F0812B5D22463146012005F0BAFCF4
:1007BC000134CAE7F39103001A920300F1D8030045
:1007CC000841002027920300349203005D9203003D
:1007DC0010B505490446012005F0A4FC204606F09E
:1007EC009FFF012010BD00BF8291030010B5054989
:1007FC000446012005F096FC204606F0DBFF0120A4
:10080C0010BD00BFAB91030010B50D4986B0044676
:10081C00012005F087FC204607F01AF8C2B200232D
:10082C000292C0F30722C0F3074001920090039399
:10083C0018461A46194607F019FA012006B010BDE1
:10084C006992030010B506490446012005F06AFCC4
:10085C00044B20461C8007F02DF9012010BD00BF71
:10086C0061910300C83C002008B50349012005F044
:10087C0059FC012008BD00BFCA910300012070473C
:10088C0070B50646104614460D4605F00DF80023CB
:10089C0033702046A847BDE8704004F0F4BF000058
:1008AC00012202490248FFF7EBBF00BFC133010030
:1008BC00A0410020012202490248FFF7E1BF00BF1E
:1008CC000FAD010090410020012202490248FFF7C0
:1008DC00D7BF00BF753E01008041002001220249B4
:1008EC000248FFF7CDBF00BF39610100A8410020CD
:1008FC00022202490248FFF7C3BF00BFC133010007
:10090C0098410020022202490248FFF7B9BF00BFFC
:10091C000FAD010088410020022202490248FFF776
:10092C00AFBF00BF753E0100784100200122024993
:10093C000248FFF7A5BF00BF29AC0100B44100205D
:10094C00022202490248FFF79BBF00BF29AC0100FD
:10095C00BC410020F22202490248FFF791BF00BFC0
:10096C0029AC0100C441002008B501202BF008FE81
:10097C0002482BF07BFD024B187008BD78930300E6
:10098C00B041002008B504F071FD012805D0034BDF
:10099C001878BDE808402BF04DBD08BDB0410020D3
:1009AC0010B50C1E03D12BF0BFFC002010BD02DBD8
:1009BC002BF0C6FCF9E70220F8E7B1F5000F02D2E4
:1009CC000902FFF7EDBF0220704700002DE9F0414E
:1009DC009846154B154F1B8800264FF00C0CF4B2A3
:1009EC009C4202D30220BDE8F0810CFB04F57C197B
:1009FC007D5D854205D165888D4202D12579954270
:100A0C0001D00136EBE701F065FB0028EAD0414646
:100A1C00A068FFF7C5FF0028E4D19DF8183063717A
:100A2C009DF81C30A371DEE73C1B0020E81A002067
:100A3C0013B59DF81040CDE9003413460122FFF7A1
:100A4C00C5FF02B010BD13B59DF81040CDE90034C0
:100A5C0013460022FFF7BAFF02B010BD07B5002302
:100A6C000093FFF7F0FF03B05DF804FB0E4BF0B5FD
:100A7C001F880E4E00254FF00C0CEBB2BB4201D37D
:100A8C000220F0BD0CFB03F3F418F35C834205D198
:100A9C0063888B4202D12379934201D00135ECE774
:100AAC00A36800201870ECE73C1B0020E81A00201B
:100ABC000122FFF7DBBF0022FFF7D8BF2DE9F04F73
:100ACC001E4693B0FF23022E0746884614461C9DF3
:100ADC009DF874A08DF81E3040F2CA802B785A070E
:100AEC002DD5042E40F2C48095F804B0654A00233D
:100AFC0002EBC3015FFA83F90979FF2908D00133AE
:100B0C000A2BF5D1209B002B40F0B6804FF0FF094B
:100B1C00002308AA0DF11F0120798DF81F3003F076
:100B2C0038FC78B1BDF82C3023809DF81F0004F000
:100B3C00A3FE8DF81D00C8B113B0BDE8F08F95F879
:100B4C0002B0D3E7207901F0E1FAFF28059000F01C
:100B5C009180207904F0A8FE8DF81D000028EBD1BF
:100B6C00059B494800EB0310438823806188238848
:100B7C004FF6FF72002F08BF4246CDE900125846CF
:100B8C005246002107F044FB18B1E38843F02003E0
:100B9C00E380209B0F950DF11D010DA8CDE90D34BF
:100BAC00ADF84080ADF842608DF844708DF845A0EA
:100BBC0003F041FC10B19DF81D00BDE7284607F07D
:100BCC007FFAA01D07F06AFA22464146384607F024
:100BDC002FFC80B2B0422DD39DF87C300393BDF82E
:100BEC00783002930DF11E03CDE900532246F3B287
:100BFC004146384600F0C6FE8DF81D00209A9DF83F
:100C0C001D304AB3D3BB9DF81E20FF2A09D0B9F181
:100C1C00090F06D81B4B03EBC9010A71209A43F844
:100C2C0039209DF81D3013B9112003F090FB04F00E
:100C3C002AFEC0E7BAF1000F0AD10DF11E03CDE96F
:100C4C00006322462B464146384610F0F5FBD3E7AD
:100C5C0074238DF81D30D1E7BA2BE2D1E388DB0683
:100C6C00DFD5002301208DF81D3004F005FCD8E7FA
:100C7C00012061E7A3205FE7B4205DE7BA2BEDD03C
:100C8C00D5E700BFF02100208C4200200023054A4C
:100C9C0010B51946FF24D018047199500833502B05
:100CAC00F9D110BDF021002010B586B008810A9C46
:100CBC0004949DF824400394BDF820400294012430
:100CCC00CDE9003413460A4601460420FFF7F6FE30
:100CDC0006B010BD10B586B00881089C04940024A1
:100CEC00CDE902440124CDE9003413460A460146FD
:100CFC000320FFF7E3FE06B010BD13B500240094EB
:100D0C00FFF7E8FF02B010BD2DE9FF410F469046FA
:100D1C00054688B381B37AB300266946F0B222F057
:100D2C0029F8044630B99DF80030032B06D0013663
:100D3C00032EF2D1204604B0BDE8F0819DF80120CD
:100D4C002B799A42F3D1BDF802206B889A42EED1EE
:100D5C009DF806309DF8050000EB032080B29DF84D
:100D6C0004306B71288143463A462946FFF7C5FF8C
:100D7C000028DCD00446DDE70224DBE710B586B0A2
:100D8C00089C04940024CDE902440124CDE90034EC
:100D9C0013460A4601460620FFF790FE06B010BD2A
:100DAC0010B586B00A9C04949DF824400394BDF8B9
:100DBC00204002940124CDE9003413460A46014632
:100DCC000520FFF77BFE06B010BD13B50024009480
:100DDC00FFF7D4FF02B010BDF0B502288BB005466A
:100DEC000E4614461F460AD106A9F0B221F0C2FFE6
:100DFC0098B99DF8193023719DF81C306371119BC3
:100E0C0004930022109B0192CDE90222009322460A
:100E1C003B4631462846FFF751FE0BB0F0BD13B5EB
:100E2C0000240194049C0094FFF7D6FF02B010BD7F
:100E3C002DE9F04306468BB00F46904699460025A7
:100E4C0006A9E8B221F096FF044630B99DF8183097
:100E5C00012B06D00135032DF2D120460BB0BDE895
:100E6C00F0839DF8192033799A42F3D1BDF81A20FA
:100E7C0073889A42EED19DF81C307371CDE9030949
:100E8C00CDE90100CDF800803B463246A9B20220E4
:100E9C00FFF714FE0028DDD00446DEE7F0B587B07E
:100EAC00074614460E461622002168461D4604F0DD
:100EBC0007FCADF80C70ADF80A40F6B108223146CB
:100ECC000DF1010004F0A0FBBDF8143043F0020357
:100EDC00ADF8143000238DF80030BDF83430ADF887
:100EEC000E300F9ABDF83030BDF83810ADF8103018
:100EFC00684612F0DBFC07B0F0BD1DB1ADF8125026
:100F0C000C23E8E74FF6FB739C428CBF08240024AB
:100F1C008DF80040E1E7000007B5094A0346108848
:100F2C0031B9084A084903B05DF804EB05F016B96D
:100F3C000091064A064905F011F903B05DF804FB6F
:100F4C00E22200202AD50300139A0300CED5030019
:100F5C001A9A03007FB505460E462CF0E5FD2A468D
:100F6C00044603460C49022005F0DCF88CB986B126
:100F7C0001238DF80E3003230093224603AB362158
:100F8C004FF6FC708DF80C408DF80D5008F0F4FD08
:100F9C000446204604B070BDFC990300FF2810B530
:100FAC000C4604D10220044905F0BCF8FE20214671
:100FBC00BDE81040FFF7CEBFB89B0300F8B51F4645
:100FCC000B8806460D461446002B63D14A88110443
:100FDC0048BF63783049042005F0A4F86B8848F2C8
:100FEC000402934232D00FD848F2010293423ED011
:100FFC0048F20202934242D0132B0ED1A2786378AE
:10100C00264903EB022223E048F20602934223D046
:10101C0032D348F22002934226D03B462246294640
:10102C00304600F00AFE40B96A8848F221039A4221
:10103C0003D16178304603F0B8F96B88B3F5004FF3
:10104C0002D9082003F006FA012024E0144A1549BD
:10105C00042005F067F8E0E7134A1249042005F074
:10106C007DF822791149F3E762781149F0E71149CB
:10107C00042005F057F8D0E722790F49E8E70F4A2A
:10108C000849042005F06AF8A27863780C4903EB50
:10109C000222DDE70020F8BD279A03009D9A030089
:1010AC004C9A0300539A0300649A03006A9A030053
:1010BC00789A0300B49A0300CE9A0300F09A0300C6
:1010CC00F59A03002DE9F04188B006460C4690468F
:1010DC001F4631F0BDFC0EAB0546009302460FAB2C
:1010EC002146304610F074FAB8BB0F9B0493BDF840
:1010FC003830ADF814308DF808600394ADF8165004
:10110C008DF818808DF8197000F0A4FA8DF81A007B
:10111C0000F0A2FA8DF81B0026F04BFA8DF81C009B
:10112C0002A803F086F9C0B9BDF838300F9A2146F1
:10113C00284605F049FE80B9BDF838300F9A214693
:10114C002846FFF73BFF40B9CDE90050BDF83830D9
:10115C000F9A3146204607F081F808B0BDE8F081BF
:10116C002DE9F04F85B0804689461446BDF83860AD
:10117C000F9D9DF840B01F46002B2CD0434A44498C
:10118C00022004F0EBFF2388002B70D040F20912F0
:10119C0093426ED03F4A4049B3F5827F18BF0A464E
:1011AC006188009101963D49022004F0D7FF238805
:1011BC006BB1022E0BD92B7839493A4A13F0010F37
:1011CC0018BF0A46AB783849022004F0C7FF3749EC
:1011DC00022004F0A7FF364A0023114602EBC3009D
:1011EC000079584547D152F833A0002301EBC302D4
:1011FC001079584545D1FF201071002241F8332059
:10120C0047B9238833B9B4F90230002B02DB08202C
:10121C0003F09DF8012003F01DF99DB12878C30758
:10122C0010D510F0040004D032460121284604F0F9
:10123C00F1FACDE901700095334622464946404605
:10124C0001F011FBBAF1000F06D0CDE9005733467F
:10125C00224649464046D0473346224649464046F8
:10126C00CDE90E5705B0BDE8F04F03F09AB8114A1E
:10127C0096E7114A94E701330A2BAFD14FF0000ADD
:10128C00B3E701330A2BB1D1BAE700BF8199030050
:10129C00899903006F990300D69903009399030071
:1012AC00729903007A990300C299030041BC0300B0
:1012BC00F0210020689903006C99030070B49DF82C
:1012CC0010409DF81460BDF80C500395CDE9043620
:1012DC00234670BCFFF744BF962813B504463ED096
:1012EC0037D8912846D0942839D0902814D100F0C2
:1012FC00A9F9264B0090264A2649022004F012FF39
:10130C00BC2C32D12449022004F00CFF03F09BF8D2
:10131C0003F09AF803F098F8204619F0B3FA204637
:10132C0011F050FC204616F06FFD204614F06AFEBA
:10133C00204613F043FA204613F0BEFE2046FFF77A
:10134C007FF900B31549022002B0BDE8104004F04B
:10135C00E9BEAF2807D8AB280AD29828DCD1104BAD
:10136C000B4A104909E0BC28C0E733F0FBFDD1E77C
:10137C009128F4D1054B064A0B49022004F0D2FE09
:10138C0006F0CDFDC8E702B010BD00BF069B030000
:10139C000F9B0300169B0300239B03005B9B030026
:1013AC004A9B0300529B0300419B030013B50F4C57
:1013BC00002004F061FA23686BB101A800F040FB37
:1013CC0048B923681A789DF804309A4203D0012A50
:1013DC0007D1022B05D1032301A8ADF804302DF061
:1013EC0025FB04F050FA02B010BD00BFDC22002037
:1013FC0010B5044604F045FA204603F02EF8BDE87B
:10140C00104004F040BA00000D4B1B6837B5054680
:10141C009BB11C780289C37A0A490092012C0A4AB2
:10142C004FF0010008BF022404F07CFE2946204640
:10143C0003B0BDE830402DF095BA702003B030BD3C
:10144C00DC2200209C9B03004890030010B504464E
:10145C0000F0F0F8631E04F10F02002113F8010FE5
:10146C00FF2808BF19709342F8D10023237410BDD4
:10147C007FB504AB03E9030000239DF80D509DF8E4
:10148C000E6016491C46D8B201EBC0025268EAB98C
:10149C009DF80C1000919DF80B309DF80A20104916
:1014AC00022004F05BFE25B12A460E49022004F00E
:1014BC0055FE0D4ABDF808300C49002C18BF2246C9
:1014CC00022004B0BDE8704004F02CBE11F83000CE
:1014DC000133B04208BF1446D5E700BFF49B0300AC
:1014EC00D9990300EA990300D5990300EE990300FA
:1014FC00FFF712B910B50EF084FA012300224FF455
:10150C00E131202018F016F90AF0A0FB04460BF08C
:10151C008DF8224603461249012004F003FE0AF01E
:10152C009BFB04460BF090F8224603460D49012024
:10153C0004F0F8FD0AF08AFB012303FA00F040F2F4
:10154C00A17318420BD0084C20780AF08BFB207842
:10155C000AF044FC2078BDE810400AF045BD10BDEF
:10156C00C39C0300D99C0300E51B002037B5002267
:10157C00114601A802F012FF002847D12AF0F2FC14
:10158C00034640B12349244A012004F0CBFDAE218F
:10159C0022480AF041F904F065F9FFF777FB00F0F7
:1015AC007DFB00F035FB0221084605F019F9FFF729
:1015BC00FDFE03F0C3F91A4B1A4C1B4D41F202020B
:1015CC001A801A4AFF231380194A4FF400401380E3
:1015DC0026F020FE0AF0F8FE2AF06EFD03F046FF1E
:1015EC00012801D000F01DFB18F0F6F8FFF7CAF93E
:1015FC002021002003F0D4FB28B1224629464FF6C7
:10160C00FF7004F0ABFD04F040F9E3E7019803B080
:10161C0030BD00BF909C030081990300A19C030086
:10162C0062210020B29C0300BF9C030064210020B7
:10163C0066210020024910237F2209880AF00ABE85
:10164C0026E603002AF006BE2AF010BE2AF0CCBB18
:10165C002AF052BC31F026BD1FB5684631F006FAAF
:10166C00C8B902A933F0CCF9082269460DEB020087
:10167C0004F02DF810B9002004B010BD02A901200F
:10168C0033F0BEF9082269460DEB020004F01FF896
:10169C0090B90120F0E731F0DBF94FF6FF73984277
:1016AC00044609D0002033F0C3F98442E3D0012072
:1016BC0033F0BEF98442ECD0FF20DDE738B50546A7
:1016CC0004F0F2F8044698B94FF4A8532A46094995
:1016DC00042004F027FD4FF4A851284608F0BEF969
:1016EC00054902460446042004F01CFD04F0CBF826
:1016FC00204638BDF99C0300059D03007FB50546C7
:10170C0004F0BFF82AF0A6FD40B16B88B3F5006F6A
:10171C0004D1681D02F047FE044616E0284602F08C
:10172C0097FED8B90446E6B26946304621F022FB52
:10173C0080B99DF800306BB92946304621F080FB0A
:10174C000028E9D075280BD08C2404F09CF8204696
:10175C0004B070BD0134032CE5D1F5E78D24F4E71A
:10176C008B24F2E738B5054604F08BF8284602F0D6
:10177C006DFE98B9284621F031FB68B175280CBF75
:10178C008B24882423462A460549042004F0CAFCED
:10179C0004F079F8204638BD0446F3E78D24F7E7CA
:1017AC00489D030037B502A9FF2301F8013D04460B
:1017BC0002F0EBFD18B19DF8070003B030BD094BEA
:1017CC0003EB04131D7B25F0F6FE854201D0FF20B0
:1017DC00F3E7204600F0BCFA0028F8D0204600F0D1
:1017EC004DFDEAE78C4200202DE9F04107460D46FD
:1017FC0002F0CDFD0646F0B9384600F087FCFF2814
:10180C0019D00E4C04EB001494F80C8025F0D3FE88
:10181C00804510D163882B80A3886B80A3792B71B2
:10182C000121384600F030FD31466871384600F031
:10183C002BFD0126A8713046BDE8F0818C420020BA
:10184C00F8B504460E46154600F060FCFF2802D1A0
:10185C004FF6FF70F8BD0B4B03EB0010077B25F028
:10186C00AAFE8742F4D146B901222946204600F04F
:10187C0031FD0028ECD00088ECE7012EE8D10022E5
:10188C00F3E700BF8C42002010B5044603F0F9FFCB
:10189C002046FFF721FDBDE8104003F0F4BF000027
:1018AC0037B50C4B1B681C5C94420D460AD9009250
:1018BC002346094A0949022004F034FC002420463E
:1018CC0003B030BD002201460092234628462BF07F
:1018DC0089F8F4E7601C002081990300789C0300D0
:1018EC00F0B599B01546044602460F460120114941
:1018FC0003AE04F017FC03F0C4FF28465222314615
:10190C00FFF7CEFF85B28DB10DF10A0031F090F8E2
:10191C000DF10B0031F094F89DF90B309DF80A2075
:10192C00CDE9005639462046FFF7CCFB03F0ABFF60
:10193C0019B0F0BD0F9D03002DE9F0439BB0144688
:10194C009DF88850894680461F4603F09AFF294629
:10195C0020460FF0EDFD80B905AE522231463846D7
:10196C00FFF79EFF48B180B20090CDE901672B468E
:10197C00224649464046FFF7F3FB03F084FF1BB0B9
:10198C00BDE8F0832DE9F74307460E460A98BDF8EB
:10199C0030809DF83490194615462BF04BF8FF28F3
:1019AC0004463AD00B9B1870062F34D8DFE807F0AA
:1019BC00040404121929220003462A4631463846EB
:1019CC0031F0ACFA054620462AF0D8FE284603B082
:1019DC00BDE8F0830C2203461146284631F070FA1C
:1019EC00F0E7EA7A0346CDE900891146284631F042
:1019FC0029FAE7E703460C222946304631F0C8F9AC
:101A0C00E0E70190EB7A00934A462B46314640467C
:101A1C0031F0E2F9D6E70225D5E71825D6E7000024
:101A2C000822014903F0F0BD515A002010B50446BC
:101A3C0008462AF0EDF92046BDE810402CF0F2B92A
:101A4C002CF0F0B905207047002070470320704738
:101A5C00014B1878704700BF781C00204B20704752
:101A6C00024B18685968FFF703BD00BF5E330400D2
:101A7C0013B5044603F005FF0DF1060030F0D8FF56
:101A8C000DF1070030F0DCFF9DF907209DF80610E2
:101A9C0020460FF021FA30B99DF907209DF8061069
:101AAC00204616F0F3FE03F0EEFE02B010BD38B582
:101ABC0004460D4603F0E5FE294620460FF056FB82
:101ACC0018B92946204616F0F1FEBDE8384003F05F
:101ADC00DABE38B504460D4603F0D3FE294620463F
:101AEC000FF064FA18B92946204616F0BDFEBDE881
:101AFC00384003F0C8BE38B504460D4603F0C1FEAD
:101B0C00294620460FF07AFA18B92946204602F0E9
:101B1C00ACFCBDE8384003F0B6BE704700F099B895
:101B2C0070470000014B18700020704740220020C5
:101B3C002DE9F341224B01931646044640B13AB1CC
:101B4C00002301AA9D5C8D4233D00133042BF9D1C3
:101B5C00022002B0BDE8F081E35C93FAA3F30146E6
:101B6C00180E03F075FC434603F10108DBB2BB42CF
:101B7C00F2DBC2B292FAA2F2C0F30F2393FAA3F3F0
:101B8C00100E1B0E03EB00236219DB439BB212F801
:101B9C00020CD9B2884211D112F8012CB2EB132FDE
:101BAC000CD132462146284602B0BDE8F04124F063
:101BBC0093BD00234FF6FF708F1ED5E7BD20C8E7FD
:101BCC00080A0E122DE9F041984686B00F4B1546C7
:101BDC00064603A80F461C7822F0AEFF15F0FD0F49
:101BEC0012D030B9BDF80C309B0702D5032D08BFBD
:101BFC000324304600942B464246394602F033FC0F
:101C0C00204606B0BDE8F0810324F2E74022002014
:101C1C0008B5FEF743FC06F04FF9BDE8084012F09A
:101C2C00CBBD08B502F0BCFB06F078F9BDE8084066
:101C3C0011F068BB704702F0FABB02F0FEBB30B487
:101C4C00BDF80840BDF80C50CDE9024530BC10F091
:101C5C00DFBB38B504460D4602F00AFC2946204687
:101C6C0012F0C6FD29462046BDE8384018F0A2BA4D
:101C7C0002F0E5BB02F0EFBB10B5074A0123332B92
:101C8C00194601D1002006E00233D41814F8034C95
:101C9C008442F4D1505C10BD5E9D0300F0B589B058
:101CAC0040F20123ADF80030F2234FF480728DF82E
:101CBC0002301F4B0493ADF808204AF2E0130222C5
:101CCC00ADF814308DF80A201A4B1B4A06930321E9
:101CDC006123ADF81C3011700023184A184DADF873
:101CEC0004308DF80630ADF80C308DF80E300DF157
:101CFC00100E0DF1180C01AF02AE03AC01201DF853
:101D0C00031011703EF8131051803CF813109180A1
:101D1C00D95D9171F15C507305EBC1019160195D56
:101D2C0011730133032B02F11002E8D109B0F0BD9D
:101D3C000401040101010D01412200208C4200200C
:101D4C00BCA50300014B1878704700BF412200204E
:101D5C00034B03EB0010407B00F00100704700BF09
:101D6C008C420020413803288CBF00200120704792
:101D7C00413801288CBF00200120704743380128CE
:101D8C008CBF0020012070470A4B0B4A10B5C31AB8
:101D9C000A489B10584380B200239C5A844202EBA1
:101DAC00030101D1488810BD0433202BF5D100204C
:101DBC00F9E700BF0C9E0300909D0300ABAAAAAAF2
:101DCC00054BC31A05489B10584380B2072841F2B3
:101DDC00A20018BF0020704780A20300CDCCCCCC51
:101DEC000388B3F57C4F01D3FFF7EABF0846FFF732
:101DFC00CBBF10B54A880488A2420DD1037B0C7965
:101E0C00234009D0B2F57C4F08D3FFF7D9FF0B89DB
:101E1C001B1A5842584110BD0020FCE70120FAE77C
:101E2C0038B514460D88D28895420AD10388B3F58B
:101E3C007C4F08D2FFF7D4FF23891B1A5842584114
:101E4C0038BD0020FCE70120FAE700002DE9F04F37
:101E5C008BB04FF0000A01939DF850300593714BF5
:101E6C00DFF8D0911B7804918046154608935746AD
:101E7C00089A5FFA8AF39A4201D8862063E099F8AF
:101E8C0000300293D9F808300393029A98F8003086
:101E9C00934240F0BF8099F80D30D80709D5039BC9
:101EAC001B7907934FF0000B079A5FFA8BF39A425A
:101EBC0004D80AF1010A09F11009D9E7039B1E683D
:101ECC00142303FB0B6641463046FFF792FF0028B4
:101EDC0000F09C8033890693002306999AB29142B4
:101EEC0002D80BF1010BDFE7746809930C2202FB9B
:101EFC000344214642463046FFF792FF2279099B64
:101F0C0000287BD0049B03B11C6091061ED446486C
:101F1C0009E01A79920642BFD8783F18BFB20C3349
:101F2C009C42F6D84148059B074493B12146304664
:101F3C00FFF756FF2388B8F802100246029802F009
:101F4C000BFA60BB7E200BB0BDE8F08F0027384B3E
:101F5C00E6E7002D35D021463046FFF741FF2388B8
:101F6C00B8F802100246029802F0F4F90028E9D001
:101F7C00DFF8C49028462379DB0615D52146304678
:101F8C00FFF72EFF98F80060B8F80210149503467E
:101F9C0022463046CC460BB0BDE8F04F6047384681
:101FAC00DFF898902F46E6E7019AA3785AB9E278C1
:101FBC00A3F14101012908D8013AD2B2394606F001
:101FCC0071FA0020BFE7019AF2E7433B012B05D8D9
:101FDC00023A92B2394606F07FFAF2E7059B2BB92A
:101FEC00019B1BB1E37801998B4218D8394617B97C
:101FFC0003F066FBE5E703F007FBE2E712F0300FB6
:10200C0002BFE0783F18BFB2013366E7708907441E
:10201C00BFB266E7039BD8880744BFB249E7892063
:10202C0091E700BF41220020BC420020CC4100209F
:10203C000C9E03008C420020834300008743000069
:10204C0010B586B000248DF81030BDF820308DF816
:10205C000C00ADF80E10ADF81220ADF81430009451
:10206C002346224602A903A80294FFF7EFFE02982A
:10207C0006B010BD2DE9F84390F8048006461F46C3
:10208C0000254FF01409EBB2984501D8002416E056
:10209C0009FB05F033681C181B5A8B4217D12AB167
:1020AC00802A0FD194F90C00002810DAB3F57C4F7C
:1020BC0005D32046FFF784FEB84200D03FB9204636
:1020CC00BDE8F883402A02D1207B4006EED40135CE
:1020DC00D9E7000030B50B4B0B4A1C780023D9B262
:1020EC00A14201D3002030BD1946013302EB031588
:1020FC0015F8105C8542F2D102EB0112507B00F016
:10210C000100F0E7412200208C42002070B50A4B00
:10211C000A491D780023DAB2AA4202D3FF221046E4
:10212C0070BD1C016618645C844202D1747BE407A8
:10213C00F5D40133EFE700BF412200208C42002090
:10214C002DE9F0410D4616461F46FFF7DFFFFF282D
:10215C000AD0074C04EB00103B46324629468068F7
:10216C00BDE8F041FFF786BF0020BDE8F08100BF5D
:10217C008C42002008B513460022FFF7E1FF003027
:10218C0018BF012008BD08B513464022FFF7D8FF41
:10219C00003018BF012008BD08B513468022FFF798
:1021AC00CFFF003018BF012008BD08B54022002326
:1021BC00FFF7C6FF003018BF012008BD30B5094B32
:1021CC00094C19780023DAB28A4201D3FF2206E0C7
:1021DC00013304EB031515F8105C8542F3D110465E
:1021EC0030BD00BF412200208C4200202DE9F0417F
:1021FC000D4616461F46FFF7E1FF054C04EB001099
:10220C003B46324629468068BDE8F041FFF732BFB5
:10221C008C4200202DE9F84F0746884691469A4695
:10222C00FFF78EFFE0B10F4BDFF83CB01E780025B6
:10223C002C46EBB2B34202D32046BDE8F88F0135F1
:10224C000BEB051313F8100C8742F5D053464A4696
:10225C004146FFF7CBFF002818BF0134E4B2E8E792
:10226C00FF24E9E7412200208C4200201346402243
:10227C00FFF7D0BF0022FFF7F9BF0000014B0001B0
:10228C00185C70478C42002070B50D46FFF73EFF7E
:10229C00FF2818D00E4B03EB001082689AB1002374
:1022AC00117918461426DCB2A14200D870BD14680E
:1022BC0006FB0344247B45B114F0400F1CBF0130D6
:1022CC00C0B20133EFE70020F0E714F0800FF5E720
:1022DC008C4200202DE9F0410F469046FFF716FF87
:1022EC00FF280BD0104B03EB0010002385682979D5
:1022FC001C464FF0140CDAB2914202D80020BDE813
:10230C00F08128680CFB0300067BB8F1000F08D0A5
:10231C0016F0400F03D0BC42F1D00134E4B20133CB
:10232C00E9E716F0800FF5E78C420020F0B585B098
:10233C00054625F03EF90646012003F0ADFA012DC5
:10234C0003D0FF2D5DD186425BD103AC01237F22EC
:10235C00212120460AF0EAFA10230093002223469A
:10236C000621012000F075FD01237F222221204649
:10237C000AF0DCFA3023009344F2030223460621D0
:10238C00012000F066FD202701237F222321204617
:10239C000AF0CCFA0097234600220821012000F015
:1023AC0058FD01237F22242120460AF0BFFA009712
:1023BC0023464FF480420821012000F04AFD2127DA
:1023CC0002237F22252120460AF0B0FA41F2A20313
:1023DC0017224FF61041CDE90047012000F049FDCE
:1023EC0002237F22262120460AF0A0FACDE90047DD
:1023FC0041F2A2034FF6FD724FF61041012000F09E
:10240C0038FD022003F048FA022D03D0FF2D58D1DD
:10241C00864256D101237F22272103A80AF086FA8F
:10242C0010230093002203AB0621022000F011FDC3
:10243C0001237F22282103A80AF078FA3023009385
:10244C0044F2030203AB0621022000F002FD20241B
:10245C0001237F22292103A80AF068FA009403AB18
:10246C0000220821022000F0F4FC01237F222A2103
:10247C0003A80AF05BFA009403AB4FF480420821E6
:10248C00022000F0E6FC212402237F222B2103A84A
:10249C000AF04CFA03AB07224FF44071009402206F
:1024AC0000F0D7FC02237F222C2103A80AF03EFA6D
:1024BC00009403AB44F210024FF44071022000F080
:1024CC00C8FC05B0F0BD2DE9F3411C461B799B07F8
:1024DC0005460F4616462ED50DF1040802220021A2
:1024EC00404603F0EDF8002D08BF4546012F72D190
:1024FC00062E23D1238863B92046FFF745FC40B94B
:10250C0023795E0605D43B462A467F2121200AF01A
:10251C0023FA228844F203039A420CD12046FFF797
:10252C0033FC40B92379580605D401232A467F2170
:10253C0022200AF011FA02B0BDE8F081082E1FD15A
:10254C00238863B92046FFF71FFC40B9237959064D
:10255C0005D43B462A467F2123200AF0FDF9238827
:10256C00B3F5804FE7D12046FFF70EFC0028E2D1EF
:10257C0023795A06DFD401232A467F212420D8E769
:10258C004FF610439E42D6D12388172B0FD12046ED
:10259C00FFF7FAFB41F2A203984208D123795B06BC
:1025AC0005D402232A467F2125200AF0D5F922885A
:1025BC004FF6FD739A42BED12046FFF7E5FB41F280
:1025CC00A2039842B7D123795F06B4D402232A46DA
:1025DC007F212620ADE7022FADD1062E20D12388F6
:1025EC0063B92046FFF7D0FB40B923795E0605D4CA
:1025FC0001232A467F2127200AF0AEF9228844F2D3
:10260C0003039A4297D12046FFF7BEFB002892D1D4
:10261C0023795C068FD401232A467F21282088E762
:10262C00082E22D1238863B92046FFF7ADFB40B9B1
:10263C002379580605D401232A467F2129200AF044
:10264C008BF92388B3F5804F7FF475AF2046FFF7E5
:10265C009BFB00287FF46FAF237959063FF56BAFD6
:10266C0001232A467F212A2063E7B6F5407F7FF4B9
:10267C0062AF2388072B0CD12046FFF785FB40B9AE
:10268C0023795A0605D43B462A467F212B200AF093
:10269C0063F9228844F210039A427FF44CAF20462F
:1026AC00FFF772FB00287FF446AF23795B063FF5FA
:1026BC0042AF02232A467F212C203AE72DE9F04F26
:1026CC008BB08046039124F074FF444B04901B782C
:1026DC0005930024059B9C4235D2B8F1FF0F0BD01B
:1026EC004046FFF713FDFF28044631D03C4B4FF01A
:1026FC00000903EB041B1CE0394B049A03EB041395
:10270C001B7B9342F2D00134E4B2E3E71B68142242
:10271C0002FB05352B89B3F5967F01D909F054FEE0
:10272C004FF0000A2A891FFA8AF39A4213D809F14A
:10273C000109DBF808301A795FFA89F5AA42E5D865
:10274C00B8F1FF0FDFD0039B13B94046FFF7EEFD46
:10275C000BB0BDE8F08F0C221FFA8AF353436A6862
:10276C00D7183E79F1062FD49BF800108DF81C1069
:10277C002988ADF81E1016F0400F0CBF40218021A7
:10278C008DF82010D35AADF8223039462846FFF781
:10279C0027FB7207ADF82400FB7818D5022BBE6816
:1027AC0000D936680123009300231946324607A846
:1027BC00FFF74CFB039B3BB13B46BDF81E209BF83F
:1027CC0000103046FFF77FFE0AF1010AAAE7022B40
:1027DC0094BF07F10806BE68E4E700BF4122002061
:1027EC008C4200200021FFF769BF10B5012104467F
:1027FC00FFF764FF2046BDE81040FFF71BBA10B589
:10280C00047B14EA010310D0002201238B4203D372
:10281C00036953F8220010BD1C4218BF01324FEA65
:10282C00430318BFD2B2DBB2F0E71846F3E7F8B5B2
:10283C0016461F469DF81820BDF81C300546FFF7BC
:10284C007FFC78B10421FFF7DAFF044650B128462B
:10285C0003F02AF83A4631462846A047BDE8F8402E
:10286C0003F011B8F8BD2DE9F74F0C9D9DF834B06D
:10287C001F4681468A46BDF83830144612B30DB354
:10288C0007B392F804802A78618812F0080F14BFFD
:10289C00402280224046FFF753FC98B10821FFF7F5
:1028AC00AEFF064670B1404602F0FEFFCDE9005B7C
:1028BC003B46224651464846B04703B0BDE8F04F70
:1028CC0002F0E1BF03B0BDE8F08FF8B5BDF81850C9
:1028DC0017461A462B460446FFF732FCE0B175B991
:1028EC000221FFF78CFF0546B0B1204602F0DCFF59
:1028FC0039462046A847BDE8F84002F0C4BF102175
:10290C00FFF77DFF064638B1204602F0CDFF2A4680
:10291C0039462046B047EEE7F8BD73B5BDF8184010
:10292C0016461A4623460546FFF70AFCB8B1C4B949
:10293C002021FFF764FF044670B1284602F0B4FF73
:10294C00099B00939DF81C209DF8203031462846A9
:10295C00A047044602F097FF204602B070BD8624C3
:10296C00FAE70024F8E72DE9F04186680446007880
:10297C0002F09AFF002514273279EBB29A4203D861
:10298C00BDE8F04102F07FBF7B4332682078D15A1A
:10299C0002EB030801F0E2FC01214046FFF72FFF98
:1029AC00034608B1207898470135E5E770B5084D26
:1029BC00084E00242B78E0B2834200D870BD06EBA1
:1029CC000010437BDB0701D5FFF7CDFF0134F1E7A6
:1029DC00412200208C4200202DE9F0411E4B06467E
:1029EC001E480C4619780023DAB28A4203D300241D
:1029FC002046BDE8F0815A1C00EB021515F8105C5E
:102A0C00B54201D01346EFE700EB0310437B03F014
:102A1C0001022CB143F00103437342B10124E7E7F7
:102A2C004473002AFAD005464FF014080DE0FFF766
:102A3C009AFFDDE71B6808FB04F41A19195B127B7B
:102A4C003046D209FEF712F83C46AB681A79671C7F
:102A5C00E4B2A242EED8E1E7412200208C420020F1
:102A6C0010B5094B094AC01AC0F38F0000239C5AB9
:102A7C00844202EB030101D1488810BD04331C2BA6
:102A8C00F5D10020F9E700BFD4A30300B09D0300EB
:102A9C002DE9F04F85B00F469346BDF838200192D2
:102AAC009DF840107C7D88B3ACB3012C18BF042476
:102ABC009DF84480DFF88890002635461FFA88F888
:102ACC0036F80900584519D109EB060090F803E0D7
:102ADC001EEA040F12D090F802A08A450ED31EF005
:102AEC00100FFA7B19D04AB1CDE90231FFF7B8FFCC
:102AFC00B7F810C08445DDE9023110D00436B6F5C4
:102B0C00AA7FDDD1012005B0BDE8F08F002C14BFE9
:102B1C0004240824CCE70224CAE7002AEED1A845F5
:102B2C000BD0019AAA4208D903F805A00F9A108875
:102B3C00013501301080ADB2E0E70020E3E700BFC3
:102B4C00D4A303002DE9F04F89B01D46BDF84840D1
:102B5C009DF850300193934623462A4607460E466D
:102B6C00FFF7EEFA8DF81470ADF816608DF818506A
:102B7C00ADF81AB0ADF81C40814618B9012009B067
:102B8C00BDE8F08F05A9FFF734F90028F6D09DF8C1
:102B9C004C3000259BB22E462F462C46029336E035
:102BAC000C231FFA85F8B9F8002003FB08F8D9F8B4
:102BBC000430B2F57C4F03EB080A1AD333F8080043
:102BCC0058452ED3029BA3422DD902F0C5FD9AF88D
:102BDC00020002F0ADFD019B43B19AF8043013F0F2
:102BEC00010F0CBF0520072002F0A2FD0134A4B296
:102BFC0019E033F80820ADF81A20514605AA4846CA
:102C0C000393FFF70DF9039B0028D7D10135B9F8D1
:102C1C000820ABB29A42C3D83C44A31B584258413B
:102C2C00ADE70137BFB20136B6B2EFE72DE9F04F91
:102C3C008FB098469DF8703006930023BDF86090D5
:102C4C008DF82C00ADF82E10ADF83220009305460F
:102C5C000E46174608A91A460BA80893199C9DF80E
:102C6C0068B09DF86CA08DF83080ADF83490FFF70B
:102C7C00EDF8089B002B00F09880BAF1000F07D1FB
:102C8C009A785A4540F094801A79D10740F1938094
:102C9C001A79520735D59A685168926809910A9247
:102CAC00987805F095FC089B059093F803A0BAF171
:102CBC00020F17D803465246214609A805F02DFCF1
:102CCC00059B0790524621460AA805F026FC079B57
:102CDC00012B01D0013014D14FF0870A50460FB0B0
:102CEC00BDE8F08F059B09985246214605F015FC6E
:102CFC000128F1D0059B0A985246214605F00DFC9F
:102D0C00E8E7069B002B59D1089B0394DB78CDF8A0
:102D1C000090CDE901B33A4643463146284601F0CE
:102D2C0082FB82460028D9D1089B0394DB78CDF82E
:102D3C000090CDE901B33A46434631462846FFF7A9
:102D4C00ECFD82460028C9D101230093069B224644
:102D5C0019460BA8FFF77AF882460028BED1089BCB
:102D6C00324629462046FFF7AEFB43463A463146EB
:102D7C002846CDE901B4CDF8009015F051FA089B26
:102D8C000394DB78CDF80090CDE901B33A46434685
:102D9C003146284601F046FBCDF8009043463A46B2
:102DAC0031462846FFF791FD98E74FF0860A95E7E4
:102DBC004FF08D0A92E74FF0880A8FE74FF0000A28
:102DCC008CE72DE9F04786B007460F9D9DF84060D3
:102DDC00BDF838400094CDE90156884691469A4694
:102DEC0001F0B6FA98B102280ED84FF00003049304
:102DFC0008BF0123CDE90263CDE9004553464A469D
:102E0C0041463846FFF712FF06B0BDE8F0870120B7
:102E1C00FAE730B587B000240125CDE903549DF8BD
:102E2C002C5002950A9DCDE90045FFF7FFFE07B037
:102E3C0030BD30B587B000240125CDE903549DF891
:102E4C0028500094CDE901358023FFF7EFFE07B041
:102E5C0030BD30B587B000240125CDE903549DF871
:102E6C0028500094CDE901354023FFF7DFFE07B071
:102E7C0030BD10B586B04FF0000C0124CDE9034CE9
:102E8C009DF824400294089CCDE900344023FFF7C0
:102E9C00CDFE06B010BD10B586B04FF0010C00246D
:102EAC00CDE9034C9DF828400294099C0194BDF88F
:102EBC0020400094FFF7BAFE06B010BD30B587B0C5
:102ECC0000258DF81030BDF828308DF80C00ADF8C9
:102EDC000E10ADF81220ADF814300095BDF830305E
:102EEC000B9A0D9C029502A903A8FEF7AFFF18B927
:102EFC0014B1029B9B78237007B030BD1FB5089CA2
:102F0C0003949DF81C400294069C019400240094A8
:102F1C00FFF7D4FF04B010BD30B585B000249DF888
:102F2C0020500394CDE9013500944023FFF7C6FFF0
:102F3C0005B030BD1FB5002403949DF81C400294CD
:102F4C00069CCDE900344023FFF7B8FF04B010BD58
:102F5C002DE9F04FDFF8CCB0A9B04FF00008FEF728
:102F6C00F1FE5FFA88F5A84202D829B0BDE8F08FCF
:102F7C002D010BEB05034FF0000904930BEB05033C
:102F8C005FFA89F49B681A79A24202D808F1010809
:102F9C00E5E71B68142202FB043400262289B3B235
:102FAC009A4202D809F10109E8E70C231FFA86FAC4
:102FBC0003FB0AFA6368059303EB0A0709F004FAAA
:102FCC0039462046FEF70CFF049B218893F800C07D
:102FDC00059B33F80A203B794FF0000E13F0400F9D
:102FEC000DF11C0A4FF08103CDE9023ECDE9000A38
:102FFC0014BF802340236046FFF760FF862806D06D
:10300C00B878FEF7B5FE20B1504602F01BFC013635
:10301C00C4E7B878FEF7B2FE0028F8D0504602F0AC
:10302C0016FCF4E78C420020F0B5A7B01646BDF8AC
:10303C00B470042F48D90DF1130403948124029425
:10304C0005ADBDF8B04000940195FFF737FF04467D
:10305C00A0BB9DF81300A0F14103012B21D82846F9
:10306C0002F0F0FB0130C4B2E31CBB422CDA304658
:10307C0002F072FB154E002002F05AFB9DF8130073
:10308C0002F056FB33881A19FE2A1DDC1048A4B234
:10309C0022461844294602F0B7FA3088044434809A
:1030AC0012E0A0F14303012B04D8284602F0CFFB19
:1030BC000230D8E7FEF7E0FD0446D5E7304602F0D3
:1030CC004BFB204602F034FB27B0F0BD6C450020D2
:1030DC007C45002038B5C37B05460BB1832038BD39
:1030EC00C47C2CB906F0EEFD20B9EB7B002BF5D19E
:1030FC008120F4E72046F2E7C37B10B504460BB100
:10310C00832010BDC37C012B13D003D3402B13D0D1
:10311C008120F6E7017D82898B1C9A4218D3806846
:10312C0002F078FB10F064F9A0B9E37B002BE7D137
:10313C00EEE710F075F9F7E7037D81899A1C91424F
:10314C0006D38268591CD05C515C17F0E3FCEBE7AA
:10315C008020D6E70020D4E7F8B5C37B04460BB13A
:10316C008320F8BDC37C052B29D8DFE803F0032AA4
:10317C0035414C4F057D8289AB1C9A4201D280208F
:10318C00EFE7ADB22946806802F044FB0646A06822
:10319C00A7890235284402F055FB284401308742A8
:1031AC00EDD32946A289A06802F03AFB01463046CD
:1031BC000FF06EFE002848D1E37B002BD0D181208C
:1031CC00CFE7017D82898B1C9A42D8D3806802F0AC
:1031DC0021FB0FF07DFEEDE7037D81895A1C9142A6
:1031EC00CDD38268591C1144D05C0FF0A1FEE1E7ED
:1031FC00017D82898B1C9A42C1D3806802F00AFB44
:10320C000FF018FFD6E70FF071FFD3E7057D828929
:10321C00AB1C9A42B3D3ADB22946806802F0FAFADD
:10322C000646A068A7890235284402F00BFB284407
:10323C0001308742A3D32946A289A06802F0F0FA94
:10324C00014630460FF09AFFB4E7002089E7C37BB4
:10325C002DE9F7430446002B40F02C81C37C042B52
:10326C0000F0B7800BD8012B00F088803FD3022BE5
:10327C0000F09480032B00F0A18081203DE0402BD6
:10328C0000F0C8800FD8052B00F0B380062BF4D1CA
:10329C00017D82898B1C9A422ED3806802F0BAFA87
:1032AC0015F0F8FC61E0412B00F0F380422BE4D1E7
:1032BC00037D8289D91D8A421ED39DB28068691C08
:1032CC00C65C02F0A7FAEB1C0746A068A28910F8AE
:1032DC000380291D02F09EFA0635A3685B5D0093FE
:1032EC00424603463946304617F0FCFE3DE0057D6C
:1032FC008289AB1C9A4203D2802003B0BDE8F083D4
:10330C00ADB22946806802F085FAA289E91C8A428E
:10331C00064605F10203EFD3881C8242ECD3A06869
:10332C00C75C02F077FA8046A068B4F80C900535BB
:10333C00284402F087FA284401308145DCD3294621
:10334C00A289A06802F06CFA8146A068284402F0B9
:10335C0079FA01300544A06810FA85F500954B46C2
:10336C0042463946304616F0ADF8002840F0A480AD
:10337C00E37B002B14BF83208120BEE7057D82896F
:10338C00EB1C9A42B8D3ADB22946806802F042FADF
:10339C000235A368595D16F07BF9E6E7057D828955
:1033AC00EB1C9A42A8D3ADB22946806802F032FADF
:1033BC000235A368595D15F097FBD6E7017D82892C
:1033CC008B1C9A4298D3806802F024FA15F0FAFB11
:1033DC00CBE7057D8289EB1C9A428DD3ADB2294691
:1033EC00806802F017FA0235A368595D15F09EFD4E
:1033FC00BBE7057D8289EB1C9A42FFF47DAFADB231
:10340C002946806802F006FA0235A368595D15F06A
:10341C0065FEAAE7057D8289AB1C9A42FFF46CAF6E
:10342C00ADB22946806802F0F5F9A289E91C8A42FE
:10343C00064605F10203FFF45FAF881C8242FFF4DD
:10344C005BAFA068C75C02F0E5F98046A068B4F8F1
:10345C000C900535284402F0F5F9284401308145DB
:10346C00FFF44AAFA289A068294602F0D9F9814637
:10347C00A068284402F0E6F901300544A06810FA6F
:10348C0085F500954B4642463946304617F012FEFC
:10349C006BE7057D8289EB1C9A42FFF42DAFADB230
:1034AC002946806802F0B6F90235A368595D17F019
:1034BC0011FE5AE7832020E700201EE7F8B5C37BF6
:1034CC0004460BB18320F8BDC37C022B21D004D859
:1034DC00ABB1012B1AD08120F5E7412B1CD0422B2C
:1034EC001DD0402BF7D1037D81899A1C91422DD39D
:1034FC008268591CD05C515C17F056FC01E011F04D
:10350C0073FF28BBE37B002BE5D0DBE711F082FFD8
:10351C00F7E711F095FFF4E717F08CFCF1E7037D6A
:10352C008289591D8A4211D39DB28068691CC65C80
:10353C0002F070F9A2890746E91CA06802F06AF94A
:10354C0039460246304617F0B5FCDAE78020BAE778
:10355C000020B8E7C37BF7B50446002B40F0D180C0
:10356C00C37C072B00F2CF80DFE813F00800370094
:10357C00590085009A00A900B500C800037D828916
:10358C00591C8A42C0F0C1809DB2691C881C8242C1
:10359C00C0F0BB80A068C75C02F03CF9EB1CA689AC
:1035AC005A1C964222BFA268D25C2B1D014603F125
:1035BC00010038BFFF2286422ABFA068FF23C35CEC
:1035CC00384610F0F1FC002840F0A180E37B002B82
:1035DC0014BF8320812003B0F0BD067D8589731C48
:1035EC009D42C0F09280B7B2BA1C954207F101031C
:1035FC00C0F08B808068C15C13460132954224BFB9
:10360C00C25CFB1C03F1010738BFFF22BD4228BF7F
:10361C00C35C805D38BFFF2310F0E3FCD3E7037D70
:10362C008289591C8A4270D39DB2A91C8A4205F129
:10363C0001076AD3881C824267D3A068C65CC75D49
:10364C0002F0E8F8291DB4F80CC04B1C9C4522BFB5
:10365C00A3685B5C691D024601F1010038BFFF23C2
:10366C0084452ABFA068FF21415C00913046394651
:10367C0010F0CFFCA7E7027D8189501C814293B2E8
:10368C0022BFA0680133805C03F1010238BFFF2028
:10369C0091422ABFA268FF21D15C10F0D6FC92E7C0
:1036AC00017D8289CB1C9A422FD38068455C013105
:1036BC0002F0B0F80146284610F084FC83E7037D45
:1036CC0081899A1C914220D38268591CD05C515C30
:1036DC0010F093FC77E7037D8289191D8A4214D37D
:1036EC00806899B2C55C4B1C0231C65C02F092F842
:1036FC0031460246284610F09AFC64E710F0ADFC07
:10370C0061E7832067E7812065E7802063E700207D
:10371C0061E72DE9F04FC37B8FB004461BB18320CA
:10372C000FB0BDE8F08FC37C0B2B4DD8DFE813F046
:10373C000C00550030014C004C004C0057014C0063
:10374C004C004C00C301D701037D8289581C824276
:10375C0024BFA06810F8038099B234BF4FF0FF0863
:10376C00013118F0070509D10F1DBA422FD3A068FB
:10377C0002F04AF8B9B20646FF2711E0022D25D116
:10378C0001F108039A42C0F0DF81A5680D4499B29B
:10379C004B1C9A421BD3A2684FF0FF36575C99B270
:1037AC00A2890B1D9A4215D3A06802F02DF8009047
:1037BC003B462A46314640460EF040FB002840F07E
:1037CC00C181E37B002BAAD18120A9E700254FF012
:1037DC00FF36D1E74FF0FF30E9E7037D82899DB2D8
:1037EC0003339A4218D32946806802F010F8033547
:1037FC00064616F0070712D1A28905F104084245C6
:10380C00C0F0AD802946A06801F0FEFF1FFA88F5D4
:10381C0083464FF0FF0A18E04FF0FF36E9E7022F1E
:10382C0040F09C80A28905F108039A42C0F08E8179
:10383C00A7682F449DB26B1C9A42C0F09080A2687E
:10384C004FF0FF3B12F805A09DB216F0100340F0AC
:10385C00898016F0600903D0B9F1600F40F07B81CC
:10386C00A28905F108039A42C0F07281A16829442B
:10387C0009919DB2B9F1000F03D0B9F1600F40F07E
:10388C006B81AB1C9A42C0F06C812946A0680A93EC
:10389C0001F0C0FF0A9B80469DB2B9F1200F02D007
:1038AC00B9F1400F62D1A289AB1C9A420A935DD345
:1038BC002946A06801F0AEFF0A9B81469DB206F036
:1038CC001803082B55D1A2896B1C9A4251D3A268BC
:1038DC00525D0A929DB271044ED5A2892B1D9A425B
:1038EC004AD32946A0680C9301F08EFF0C9B0B90D9
:1038FC009DB216F4004344D0A28905F110039A42FC
:10390C003ED3A2682A440C929DB2F2033BD5A28905
:10391C00AB1C9A4237D32946A0680D9301F07AFF6D
:10392C000D9B9DB2B30331D5A2896B1C9A422DD34A
:10393C00A3685B5DCDF80480CDE906030C9B059371
:10394C000B9B04930A9BCDE90293099B00933A4687
:10395C005346594630460EF073FA2FE700274FF0C6
:10396C00FF3B56E700234FF6FF7809934FF6FF799C
:10397C00A5E7FF230A93AEE74FF0FF330B93B8E7AD
:10398C0000230C93C1E74FF6FF70CBE7FF23D1E781
:10399C00017D8289481C824224BFA068455C8BB2A1
:1039AC0034BFFF250133A90714D59E1CB24211D395
:1039BC001946A06801F02EFFB3B20146EA060CD5F9
:1039CC00A0895A1C904208D3A268D25C28460EF0FB
:1039DC00F1F9F3E64FF6FF71F0E7FF22F6E7037D0E
:1039EC0082898068591C8A429DB228BF013505F135
:1039FC0002062CBF10F803804FF0FF08B24233D3FD
:103A0C00294601F007FFB5B28146A289A0686B1C5C
:103A1C009A422ABF10F805A04FF0FF0A9DB218F089
:103A2C00070624D105F1040B5A4530D3294601F081
:103A3C00EBFE1FFA8BF507464FF0FF0BA289A0682F
:103A4C000A92691C8A4223BF435D09938DB2FF23FE
:103A5C00284438BF099301F0F5FE0A9A2844013036
:103A6C00824217D280205BE64FF6FF79CDE7022E1B
:103A7C000CD105F108039A4271D346199DB210F886
:103A8C0005B00135ADB24FF0FF37D7E700264FF048
:103A9C00FF37D1E7A289A068294601F0C1FE099B36
:103AAC000390CDE901B300963B4652464946404649
:103ABC000EF050FA82E6007DA289031D9A42D1D302
:103ACC0086B2A568F31CB21C711C0436EB5CAA5CB4
:103ADC00695C285C354400950EF0EAFA6EE6037DCD
:103AEC008289591C8A42BDD38068C65C9FB216F08D
:103AFC001F0507F1010104D101F086FE791D00229A
:103B0C0006E0022D1BD1421807F109014FF0FF30DE
:103B1C0006F00703022B01BFA3684D1C5B5CA9B226
:103B2C0006F0180518BFFF23082D0ABFA568FF254E
:103B3C006D5C0095014630460EF0A8FB3EE64FF05A
:103B4C00FF30DCE70020EBE5002521E6002772E6DC
:103B5C00002309938EE609934FF6FF789DE6002625
:103B6C008DE7B9F1200F4FF6FF787FF499AEFDE6A3
:103B7C002DE9F043C37B85B00446002B40F0A482B2
:103B8C00C37C062B00F05C813AD8022B00F0EB8052
:103B9C0007D8002B00F08F80012B00F0C48081200F
:103BAC008FE0042B067D858900F02A8140F2048188
:103BBC00731C9D42C0F08480B7B207F1010C0CF16C
:103BCC0001039D427CD3FA1C954207F1020377D383
:103BDC008068F91CC25C4B1C9D4224BF435C391DA0
:103BEC0001F1010738BFFF23BD4228BF455C10F827
:103BFC000C10805D38BFFF25009506F09BFC89E01A
:103C0C000A2B00F0AA8139D8082B017D828900F09B
:103C1C007B8140F244818B1C9A4251D38DB2294650
:103C2C00806801F0F7FDA91CA2898B1C9A420746FB
:103C3C0046D3A06801F0EEFD291DA2898B1C9A4287
:103C4C0080463DD3A06801F0E5FDA91DA6894B1C5B
:103C5C009E4222BFA3685B5CE91D024601F1010094
:103C6C0038BFFF2386422ABFA068FF21415C009128
:103C7C0038B20FFA88F106F075FD4BE04B2B00F0D3
:103C8C0097814C2B00F0D481472B88D1027D818900
:103C9C00501C814293B222BFA0680133805C03F1B7
:103CAC00010238BFFF2091422ABFA268FF21D15CDC
:103CBC0006F0FAFE2EE0037D8289591C8A4203D25B
:103CCC00802005B0BDE8F0839DB2A91C8A4205F1A5
:103CDC000107F5D3881C8242F2D3A068C65CC75D8D
:103CEC0001F098FD291DB4F80CC04B1C9C4522BF5B
:103CFC00A3685B5C691D024601F1010038BFFF231C
:103D0C0084452ABFA068FF21415C009130463946AA
:103D1C0006F002FB002840F0D981E37B002B14BF96
:103D2C0083208120CDE7067D8589731C9D42C7D3F6
:103D3C00B7B2BA1C954207F10103C1D38068C15CCC
:103D4C0013460132954224BFC25CFB1C03F10107F0
:103D5C0038BFFF22BD4228BFC35C805D38BFFF2344
:103D6C0006F026FAD6E7077D85897B1C9D42A7D3F2
:103D7C00BEB206F1010C0CF101039D42A0D3F21C62
:103D8C00954206F102039BD38068F11CC25C4B1C6C
:103D9C009D4224BF435C311D01F1010638BFFF2356
:103DAC00B54228BF455C10F80C10C05D38BFFF252C
:103DBC00009506F063FBADE7731C9D4280D3B7B250
:103DCC00791C8B1C9D42FFF47BAF80682A46865D74
:103DDC0001F020FDFB1CA5895A1C954222BFA2684C
:103DEC00D25C3B1D014603F1010038BFFF22854226
:103DFC002ABFA068FF23C35C304606F0F5FA89E7BA
:103E0C00731C9D42FFF45CAFB7B2BA1C954207F12C
:103E1C000103FFF455AF8068C15C13460132954233
:103E2C0024BFC25CFB1C03F1010738BFFF22BD425B
:103E3C0028BFC35C805D38BFFF2306F01BFA69E71F
:103E4C00037D8289591C8A42FFF43AAF9DB2A91CAA
:103E5C008A4205F10107FFF433AF881C8242FFF45C
:103E6C002FAFA068C65CC75D01F0D4FC291DB4F867
:103E7C000CC04B1C9C4522BFA3685B5C691D0246B1
:103E8C0001F1010038BFFF2384452ABFA068FF2140
:103E9C00415C00913046394606F01CF93AE78B1C20
:103EAC009A42FFF40DAF8DB22946806801F0B2FC46
:103EBC00A91CA2898B1C9A420746FFF401AFA0688B
:103ECC0001F0A8FC291DA2898B1C9A428046FFF4A4
:103EDC00F7AEA06801F09EFCA91DA6894B1C9E4262
:103EEC0022BFA3685B5CE91D024601F1010038BFEB
:103EFC00FF2386422ABFA068FF21415C009138460F
:103F0C00414606F06FFB05E78B1C9A42FFF4D8AED6
:103F1C008DB22946806801F07DFCA91CA2898B1CFE
:103F2C009A420746FFF4CCAEA06801F073FC2B1D3F
:103F3C00A6895A1C964222BFA268D25C6B1D01B2A4
:103F4C0003F1010038BFFF2286422ABFA068FF237D
:103F5C00C35C38B206F09AFBDCE6057D8289AB1CAB
:103F6C009A42FFF4ADAEADB22946806801F052FC26
:103F7C00A91CA2898B1C9A420746FFF4A1AEA0682B
:103F8C0001F048FC2B1DA6895A1C964222BFA26840
:103F9C00D25C6B1D014603F1010038BFFF22864243
:103FAC002ABFA068FF23C35C384606F055FCB1E677
:103FBC00037D8289591C8A42FFF482AE9DB2691C32
:103FCC00881C8242FFF47CAEA068C65C01F022FC27
:103FDC00E91CA2898B1C9A420746FFF471AEA068BB
:103FEC0001F018FC691DA2898B1C9A428046FFF4D3
:103FFC0067AEA06801F00EFCEA1DB4F80CC0511CB1
:10400C008C4522BFA168895C05F10802034602F1C8
:10401C00010038BFFF21844526BFA068825CFF22C7
:10402C00CDE9001230464246394606F02FFC71E6C7
:10403C00037D8289591C8A42FFF442AE9DB2691CF1
:10404C00881C8242FFF43CAEA068C65C01F0E2FB27
:10405C00E91CA2898B1C9A420746FFF431AEA0687A
:10406C0001F0D8FB691DA2898B1C9A428046FFF493
:10407C0027AEA06801F0CEFBE91DA2898B1C9A42E9
:10408C008146FFF41DAEA06801F0C4FB05F10902E6
:10409C00A389511C8B4222BFA168895C05F10A02DD
:1040AC0002F1010538BFFF21AB4224BFA3689A5C23
:1040BC00009038BFFF22CDE901124B4642463946EB
:1040CC00304606F049FC25E68320FAE50020F8E5A9
:1040DC00C37B10B504460BB1832010BDC37C412BB0
:1040EC0003D0422B0FD08120F7E7037D81895A1C26
:1040FC00914212D38268D05C17F0D6F878B9E37B82
:10410C00002BE9D1EFE7037D81895A1C914204D33E
:10411C008268D05C17F018F9F0E78020DDE700200A
:10412C00DBE70000C37B70B50446F3B1036941F2D1
:10413C00A20223F47F03934219D1057D86898068FE
:10414C00284401F07FFB28440130864201D28020B4
:10415C0070BDA289A068294601F062FBFCF7E4FA65
:10416C0000286FD1E37B002B5FD18120F0E7364A2A
:10417C00934211D1057D86898068284401F062FB49
:10418C00284401308642E2D3A289A068294601F076
:10419C0047FBFCF71DFBE3E72C4A934211D1057D4D
:1041AC0086898068284401F04DFB28440130864202
:1041BC00CDD3A289A068294601F032FBFCF716FB8F
:1041CC00CEE7234A93420AD1017D82898B1C9A4205
:1041DC00BDD3806801F01EFBFCF750FBC0E71D4A05
:1041EC00934211D1057D86898068284401F02AFB11
:1041FC00284401308642AAD3A289A068294601F03E
:10420C000FFBFCF731FBABE7134A93420AD1037D5A
:10421C00818903F10802914299D380681844FCF714
:10422C00F3FA9DE70D4A934201D0832090E7017D7C
:10423C0082898B1C9A428AD3806801F0EBFAFCF7D6
:10424C0001FB8DE7002083E7A2100002A2100005FD
:10425C00A2100007A2100009A2100013A210001552
:10426C0038B5C37B002B437D14BF8325C325012B9D
:10427C00044619D10368028A59885879FDF78CFFD6
:10428C0090B123685B88192B03D0212B07D02846CB
:10429C0038BDE37B002B14BF83258125F7E720462F
:1042AC00BDE83840FFF735BA637D002BEFD12368AA
:1042BC00228A59885879FDF766FF0028E7D02368D1
:1042CC005B88062B34D012D8032B27D006D8002BB2
:1042DC00DDD12046BDE83840FEF7FCBE042B22D0D1
:1042EC00052BD4D12046BDE83840FEF7B0BFB3F55E
:1042FC00407F22D006D8082BC9D12046BDE83840D3
:10430C00FFF728B9B3F5805F1CD04FF610429342EB
:10431C00BDD12046BDE83840FFF704BF2046BDE8BC
:10432C003840FEF7E9BE2046BDE83840FEF714BF22
:10433C002046BDE83840FFF7C1B82046BDE83840FC
:10434C00FFF716BC2046BDE83840FFF7C1BE7047EA
:10435C0001207047012070470120704770470020F2
:10436C0070470020704700207047002070470020E5
:10437C007047002070470120704701207047B5201E
:10438C0070470020704700207047002070470020C5
:10439C00704700207047704700207047002070471E
:1043AC0070470020704784207047704770477047F3
:1043BC0070477047704770477047002070477047D0
:1043CC007047704700207047704702F0F1B9032026
:1043DC007047002070470000034B1B6818780128B9
:1043EC0008BF0220704700BFDC220020704700206D
:1043FC0070470000034A03460120C3E90320002252
:10440C001A7070470100FEFF70477047704700201C
:10441C00704700207047002070470020704770479D
:10442C000020704770470020704700207047002024
:10443C007047002070470020704700207047002014
:10444C007047002070477047B520704700207047B8
:10445C0000207047704700207047704770477047C6
:10446C007047B52070477047704770470020704701
:10447C00704701220021092004F016BA02292DE907
:10448C00F84F0546894604D84FF0000B5846BDE856
:10449C00F88F1BB10429F7D942F004020C9C2A7046
:1044AC00002B50D06B701B0AAB70032703F0DAFDA6
:1044BC0007F1020BE85501379DF82830EB55464EB5
:1044CC004FF000085FFA88F30B9AD05C0028DDD01F
:1044DC00732861D8A0F14C03DBB2162B04F104074E
:1044EC00D4F800A039D826FA03F3DB4313F0010308
:1044FC003BD162684C2804F1080794B225D14FF6E1
:10450C00FF7322469C4214BF022300230BEB0400D2
:10451C0018448145B8DBDE461846002851D19B442F
:10452C001FFA8BFB5CB1BAF1000FADD005EB0B00A1
:10453C002246514601F068F8A3441FFA8BFB08F1A0
:10454C0001083C46BEE70127B0E753281BD1D2B285
:10455C00B2F1FF0318BF0123D8E76C2805D15046F0
:10456C0001F075F9023084B20CE0732804D1504686
:10457C0001F068F90130F6E7A0F13004E3B2092B41
:10458C0003D8A4B200231A46C0E7A0F14103062BBE
:10459C003FF67AAF3738E6E7752808D076280CD086
:1045AC0078280CD077287FF46FAF042300E0012328
:1045BC00271D22680024A246A8E70223F8E703235C
:1045CC00F6E70EF1010C013805F80E20C0B2120A04
:1045DC001FFA8CFEA1E700BF8100400010B5044C0F
:1045EC0020600448018004490A60044A136010BD2D
:1045FC004C2200205022002048220020442200207F
:10460C0070B586B00AAC0D4654F8046B0B49059492
:10461C0009880093CDE901641346024608480068F6
:10462C00FFF72CFF074B1B681880074B1B684FF4D8
:10463C008A525D80DA8006B070BD00BF5022002027
:10464C004C220020482200204422002008B430B51F
:10465C0086B009AB0C4653F8045B0D4905930988E9
:10466C000092CDE9015302460A4800230068FFF787
:10467C0005FF094B1B681880084B1B684FF48A52C6
:10468C005C80DA8006B0BDE8304001B0704700BFF6
:10469C00502200204C2200204822002044220020DE
:1046AC00044B054A196812680988034603480068D8
:1046BC00FCF7BEBB482200204C22002044220020E4
:1046CC000020FFF7EDBF00001FB5074C24682488BD
:1046DC000091CDE901230549054B09681B68224669
:1046EC00FCF7E2FA04B010BD48220020442200205E
:1046FC004C2200200023FFF7E7BF0000044B054AC3
:10470C001B6812681988044B1868FCF7FDBA00BFC7
:10471C00482200204C2200204422002007B5074BE1
:10472C001B681B880192064A12680092054A12689F
:10473C00FCF752FB03B05DF804FB00BF48220020DD
:10474C004C220020442200200022FFF7E7BF00008B
:10475C001FB5074C246824880091CDE90123054935
:10476C00054B09681B682246FCF71AFB04B010BD08
:10477C0048220020442200204C2200200023FFF776
:10478C00E7BF00001FB5094C24680394084C24684B
:10479C0024880294BDF818400194064C246864885F
:1047AC000094FCF77BFB04B010BD00BF4C22002032
:1047BC004822002044220020014B1868704700BF9B
:1047CC0044220020024B1B6818715971704700BFBE
:1047DC0044220020F8B50D468C680A682649064626
:1047EC00202008F02CFA6B687BB92449202008F0B3
:1047FC0026FA202014F0D8FF2149202008F034FAA2
:10480C002020BDE8F84014F0CFBF002EF1D01D4D94
:10481C001D4E1E4F013C14F8013F23B918492020AE
:10482C0008F022FAE5E7752B16D0762B16D0772BED
:10483C0016D0732B16D0722B16D0712B16D0622B70
:10484C0016D06E2B16D01249124A2A2B18BF1146BD
:10485C00202008F0F4F9DEE72946F9E73146F7E7BE
:10486C003946F5E70C49F3E70C49F1E70C49EFE75A
:10487C000C49EDE70C49EBE7B3D8030090BC0300FF
:10488C0041BC03004EBC030042BC030059BC0300F6
:10489C0097BC030094BC030065BC03006FBC030011
:1048AC007ABC030085BC03008FBC0300F0B5214A21
:1048BC0092F87B30184452FA80F01F4B90F865C088
:1048CC0090F866501F78A5EB0C050026EDB230462B
:1048DC00F4B2A54225D90CEB060313445B7811B155
:1048EC000CB92D2B17D0782B1FD0582B05D108B114
:1048FC0037240AE0013C012C14D9602B17D8402B2B
:10490C00F6D83A2B34BF302400241B1BDBB29F4259
:10491C0003D900FB07300136DAE7052382F879303A
:10492C000020F0BD10270020F5E70028E2D0572426
:10493C00EBE700BF52220020E61B0020094A0023AF
:10494C00FF21137082F8783082F8653082F8773066
:10495C0082F8793082F87A1082F87B30024A136040
:10496C00704700BF5222002038450020034B93F8BB
:10497C00770093F87B30C01AC0B2704752220020E7
:10498C000021FFF793BF000010B50A4B93F87B2072
:10499C00024453FA82F292F8652013445C78A4F135
:1049AC002D0359425941FFF781FF2D2C08BF40427E
:1049BC0010BD00BF5222002030B50C4A92F87B305B
:1049CC000344C043DBB2C00F39B1D51895F866402B
:1049DC0095F86550641B241A0C7042FA83F393F813
:1049EC0065301844024B184430BD00BF52220020E1
:1049FC0053220020F7B50E460DF1070115461C4653
:104A0C00FFF7DAFF9DF80730AB42074688BF8DF8F9
:104A1C0007501CB19DF807402C1BE4B222463046CF
:104A2C00002100F04DFE30199DF80720394600F0AA
:104A3C00EBFD9DF8070003B0F0BD38B508220C461D
:104A4C000123FFF7D7FF04F10803621E043413F8A7
:104A5C00011D12F8015F1D70A3421170F7D138BD12
:104A6C0038B5014605460120FFF7B4FED5E90143F0
:104A7C006CB91C46084D236863B12946202008F008
:104A8C00DEF821460020FFF7A5FE0C34F3E71B7877
:104A9C006E2BEFD038BD00BF2BF7030008B50449CF
:104AAC00202008F0CCF82020BDE8084014F07CBE93
:104ABC0002BC030038B5FFF7F1FF064D0024611965
:104ACC000C34631953F80C3C03B938BD0020FFF7C4
:104ADC0081FEF4E7D4A503002DE9F84F1F4B204DC0
:104AEC0053F820201F49202008F0A9F82B681BB987
:104AFC00BDE8F84FFFF7DEBF1B4FDFF874A0FFF7E0
:104B0C00CDFF0026B94697F87B30F4B2013B9C42AE
:104B1C0004DB2868BDE8F84FFFF7A2BF47FA86F31D
:104B2C004C4493F865800023C84494F8662094F8AC
:104B3C006510521A03F1010BD2B2DBB2934205D3CA
:104B4C000A49202008F07BF80136DCE74344514643
:104B5C005A78202008F073F85B46E6E7E81B002043
:104B6C0038450020FDBB0300522200202CF7030027
:104B7C00A2D903002DE9F74F824C94F87730002B23
:104B8C0000F0A380804B1B7813F0010F04F1010798
:104B9C001FD000257D4E14E06319202093F8662069
:104BAC0093F86530D21A44FA85F3D2B293F86510B3
:104BBC00394414F0F4FD3146202008F040F801355A
:104BCC00EDB294F87730AB42E6D87149202008F06A
:104BDC0036F894F877300193DFF8C0E16D4B00267E
:104BEC0071461EF8012B91F801C04FF00008ACEB98
:104BFC00020C07EB020A5FFA8CFC45461868002889
:104C0C0053D00138D14619E02AB9002D4BD04FF0C2
:104C1C0001080C33F2E719F8011BA1F1410BBBF1B0
:104C2C00190F98BF2031A2F1410B98BFC9B2BBF14B
:104C3C00190F9CBF2032D2B28A42EAD1A9EB0A01E9
:104C4C00614510F8012FDFD1002ADED11D46524BF1
:104C5C001D6094F87B30013384F87B30D5E9012357
:104C6C000136F6B2002A36D01B786E2B32D03F2B91
:104C7C0024D04FF000094F464FF0070A4FF0040BB9
:104C8C005FFA89F0811994F877C0AA68C9B28C458B
:104C9C00D35D28D893B117447B782A2B1CBF0323F0
:104CAC0084F879300AE01D46B3E7B8F1000F01D162
:104CBC00002DCCD1022384F87930002594F87900AA
:104CCC0000285CD1686800F02FF903B0BDE8F04F04
:104CDC00FFF734BE1346019AB24281D8032284F8FE
:104CEC0079201D46EAE7732B08D8712B0AD2002BCA
:104CFC0043D0622B30D084F879A016E0A3F1750272
:104D0C00022AF8D8752B1ED0762B1FD0732B20D0EF
:104D1C00722B47F6FF7818BF4FF0FF380121FFF7D1
:104D2C00C5FD404501D984F879B0AB683B4409F125
:104D3C0001095B782A2B94F879301CBF0137FFB23C
:104D4C00002B9DD0BAE74FF0FF08E7E74FF6FF784E
:104D5C00E4E74FF07F08E1E794F87B30184454FA0D
:104D6C0080F090F8653023445B78222BDDD07B2BD0
:104D7C00DBD0052384F87930D7E70323FAE7FFF774
:104D8C00ABFEA2E752220020CE2200202CF703001B
:104D9C003FBC0300D4A5030038450020B7220020F7
:104DAC002DE9F3415E4C5F4F06460D464FF000086F
:104DBC0066B90DF10701284614F0ECFC78B12628F1
:104DCC0000F0A980012384F879304BE0002D00F02D
:104DDC00A28016F8013B8DF80730013DEDB23A7810
:104DEC009DF807303B700D2A01D10A2BE0D00D2B1A
:104DFC000CD0A3F10A025142514122788846042A70
:104E0C00D6D8DFE802F0051D263C31000121F4E77D
:104E1C0021B1FFF7AFFE4FF00108C9E7202B63D09B
:104E2C00222B07D10223237094F87820642A5DD1B9
:104E3C000623C8E77B2B01D10323F4E70123F2E718
:104E4C0009B9202BF0D194F87730112B3FD10323E3
:104E5C00B9E7222BF7D00029E6D0052384F8793066
:104E6C004FF0010804232370B8F1000FA0D094F880
:104E7C00790008B1FFF730FEFFF760FD98E77D2B56
:104E8C0094F87A0003D1FF28DDD005239BE7602B33
:104E9C0013D8402B13D8392B8CBF002230229A1AEE
:104EAC00D2B20F2A10D8FF280BD002EB0012FF232E
:104EBC008DF8072084F87A30B6E75722EFE73722CF
:104ECC00EDE784F87A2073E7202BDED170E701330D
:104EDC00DBB284F87730234494F8782083F865208B
:104EEC0000232370002994D1884661E72378012B95
:104EFC0009D19DF80730A3F1410119299CBF20333A
:104F0C00DBB28DF80730A3189DF8071059700132E9
:104F1C0084F878204CE7404602B0BDE8F08100BF31
:104F2C0052220020CF22002010B5054B04461878E1
:104F3C0000F0A2FCA047BDE8104000F0A4BC00BFEC
:104F4C00E02200207FB501A8FCF780FA01AA0349F2
:104F5C00022001F0E7F807B05DF804FB7ABF03000C
:104F6C002DE9F04F18228DB0FF230DEB020000212C
:104F7C008DF80A3033F025FF0DF10B014FF0FF30A7
:104F8C00FFF71AFDFFF7DEFF41F202029D490220F6
:104F9C0001F0C8F804A8FCF743FD06A90DF10A00BE
:104FAC00FCF744FD0220984901F0D8F8022001F0EA
:104FBC00A5F810B104A801F01DF89DF922309DF858
:104FCC0023209249022001F0ADF826F09BFF831EAE
:104FDC00DBB2FC2B05462AD88D498E4E8E4FDFF85E
:104FEC00A482022001F09EF80124224631460220C0
:104FFC0001F0B4F803A9E0B226F02EFF9128024686
:10500C0000F09580932800F09280002840F0948066
:10501C009DF90C1000919DF80E309DF80D207F49E4
:10502C00022001F07FF80134E3B2AB42DDD3BDF8CE
:10503C002040FCF707FB224603467949022001F089
:10504C008DF80220774901F089F8022001F056F81A
:10505C0010B106A800F0CEFF7349022001F062F8EF
:10506C002CF0E4F804462CF0DBF8224603466F499A
:10507C00022001F057F8FCF7F3FC6D49022001F017
:10508C006DF89DF80A20FF2A5BD06A49022001F0D6
:10509C0065F86549DFF8F081022001F043F8FCF770
:1050AC00D1FC654A65490346022001F03BF826F025
:1050BC009BFE63490246022001F050F8FCF7C8FC45
:1050CC000446FCF7CBFC224603465E49022001F065
:1050DC0029F8FCF737FE5C490246022001F022F861
:1050EC000025FCF72FFEECB2A0422FD80122574925
:1050FC00574C022001F016F8002000F0BDFB554B78
:10510C0055490022022001F00DF8236853B11A789A
:10511C005249022001F006F8236851495A780220BE
:10512C0001F000F800F0AFFB0DB0BDE8F08F394690
:10513C00022000F0F7FF76E74146022000F0F2FF74
:10514C0071E74849022001F009F8A2E7464B474FA6
:10515C0003EB04162046D6F80890FDF78FF882462C
:10516C002046FCF7F5FD002814BFC346BB4620467D
:10517C00FDF784F802F050FE002814BF4046384674
:10518C005B46009052463A49DFF800B1022000F02D
:10519C00E5FFB1797388327B0191B18800910220CF
:1051AC00344900F0BFFF002699F80430F4B2A34252
:1051BC0001D8013595E7D9F800702F482F491423F1
:1051CC005C4307EB040A3B5B9AF90C2011EA2201C1
:1051DC0038BF01460A460220594600F0BFFF0220A4
:1051EC0000F08CFF38B150463C5BFCF7E9FD014602
:1051FC00204602F0C1FE2249022000F093FF013646
:10520C00D2E700BF32BD03004DBD030079BD0300E2
:10521C0054BD03006ABD03008EBD030071BD0300C5
:10522C00A4BD0300C2BD0300FA990300CBBD03006B
:10523C00ECBD03001CEF030023F10300FFBD0300D2
:10524C000DBE030021BE030030BE0300A4BE03004C
:10525C00DC220020B0BE0300BEBE0300CABE0300A9
:10526C00DCBE0300F7BD03008C42002011BD03001F
:10527C003BBE03005BBE030026BD03001ABD03004A
:10528C0041BC030099BD030009BD03008DBE0300A2
:10529C0008B50020FFF774FBBDE8084080B200F0B1
:1052AC00ABBF08B50020FFF76BFBBDE8084080B230
:1052BC0000F0B6BF70B5074D074E00240C346319CF
:1052CC0053F80C2C02B970BD3146022000F02AFFB5
:1052DC00F4E700BFD4A50300B3D8030007F09AB9D4
:1052EC0008B50020FFF74CFB054B1A7810F0FF0FA8
:1052FC0014BF42F0010222F001021A7008BD00BF77
:10530C00CE2200202DE9F8431FF088FB104EDFF869
:10531C004C80DFF84C9007460025EBB256F8334032
:10532C000CB9BDE8F88358F823204946012000F059
:10533C0015FF23782BB90749012000F0F3FE013546
:10534C00EBE762680449D21B012000F0EBFEF6E7A4
:10535C00789303006BBF030074BF0300401B002055
:10536C0064BF030010B52FF01DFE0D49044601204B
:10537C0000F0F4FE022C0DD0032C0DD0012C0DD11D
:10538C000849012000F0EAFE07490120BDE8104061
:10539C0000F0C8BE0549F4E70549F2E70549F0E716
:1053AC00F5BE030012BF03001BFF030018BF030070
:1053BC0027BF030037BF03002DE9F843114EDFF878
:1053CC0054800025FCF7BEFCECB2A04201D8BDE82D
:1053DC00F8832701204616F80790FCF7B9FC0A4B16
:1053EC000A49002818BF43464A46012000F0B6FE81
:1053FC00F05DFCF792FB0649012000F093FE0135AD
:10540C00E0E700BF8C42002088C0030059BF0300B6
:10541C0041BC03007EC0030008B50020FFF7B0FAC2
:10542C00094B1B681B681978A1F165035942594156
:10543C00C0B2FDF7D1FA28B904490120BDE80840F3
:10544C0000F070BE08BD00BF384500203FBF030010
:10545C0049BA89B24840C0F303114140080380B2F5
:10546C004840C3B280EA431070470000014B1878E3
:10547C00704700BFD0220020014B1870704700BF4E
:10548C00D022002022F0E8BE38B5A0F14303054637
:10549C000A2B31D8DFE803F0060A0A12123030303A
:1054AC0030301100BDE838401DF050BB1DF01AFB28
:1054BC0020B11DF04BFB0028FBD138BD114C2078DE
:1054CC000028FAD10123443D237014F0D3FD032DA1
:1054DC000DD8DFE805F00606090240F601001FF0C2
:1054EC006DFA00232370E8E740F60200F7E77A2113
:1054FC00054806F091F9F4E78C210348BDE83840E3
:10550C0006F08AB9D122002089BF0300704770478A
:10551C0070477047704770477047704770477047C7
:10552C0070470020704770477047704700207047E5
:10553C0070477047002070477047704700207047D5
:10554C0070470120704701207047704770477047C3
:10555C0070477047704700002DE9F047204DDFF889
:10556C00A090DFF8A0A000245FFA84F8404626F053
:10557C00D5FCFF2806460CD122461A49287807F09C
:10558C0073FB2878013414F00FF9142CECD1BDE81E
:10559C00F087154B59F82420144947B213EA270316
:1055AC0038BF5346287807F05FFB002FE9DA14B1B7
:1055BC00B8F1030F08D10E4B0E49287816F0010FE5
:1055CC0018BF194607F050FB0A2CDAD10A4B0B49CD
:1055DC00287816F0010F18BF194607F045FBD0E7E5
:1055EC00E51B002091C0030041BC0300B9C00300BF
:1055FC0054C003006AC003007CC0030086C00300D3
:10560C0000C003005EC503008842F0B54FEA920368
:10561C001AD89BB29E00871904460D4604370434F1
:10562C00BC4205F104053AD1C3EB8333314402EBA0
:10563C008303013E304411FA83F3994220D011F8D0
:10564C00012B00F8012FF8E7541E20449BB2214493
:10565C00A0EB830604460D46043E043CB442A5F17F
:10566C0004050ED16FF003045C43C3EB833302EBF0
:10567C00830321449BB201342044CB1A994209D1B3
:10568C00F0BD2F792771EF78E770AF78A7706F783E
:10569C006770E2E711F8012900F8012DEEE715F823
:1056AC0004CC04F804CC15F803CC04F803CC15F89E
:1056BC0002CC04F802CC15F801CC04F801CCAEE70E
:1056CC000244904200D1704700F8011BF9E710B575
:1056DC00013801390AB9104606E010F8014F11F8EB
:1056EC00013F9C4201D0E01A10BD013A92B2F1E7A1
:1056FC000A4B10B500241C70FBF7A4FF084B214685
:10570C001880FF220748FFF7DBFF074B07481C8078
:10571C0021460C22BDE81040FFF7D2BF48230020E1
:10572C007A4500207C4500206C4500206E45002009
:10573C0007490B88FE2B9FBF064AD05401339BB2FE
:10574C009DBF0B8003F1FF3398180020704700BFFA
:10575C006C4500207C45002038B50546C0B2FFF7EB
:10576C00E7FF0446280AFFF7E3FF14B1002808BF3F
:10577C000024204638BDF8B50546C0B2FFF7D8FF67
:10578C000446C5F30720FFF7D3FF0746C5F30740D0
:10579C00FFF7CEFF0646280EFFF7CAFF24B12FB144
:1057AC0036B1002808BF00242046F8BD3C46FBE774
:1057BC003446F9E770B50A4D2B885A18FE2A0C4668
:1057CC000CDC084E0A460146F018FFF71DFF28882E
:1057DC00204480B22880001B304470BD0020FCE7C0
:1057EC006C4500207C450020194491420ADC0144A0
:1057FC00002003B9704711F8012D013B02EB00208A
:10580C00DBB2F6E7002070470423FFF7EDBF03235C
:10581C00FFF7EABF08B50223FFF7E6FF80B208BD29
:10582C008A4203460AD95B5CFF2B08BF00230B445A
:10583C00084403499342A8BF084670470048704784
:10584C00DA2200200078FF2808BF0020704708B536
:10585C0002220021FFF7DEFF4FF6FF73984208BFCC
:10586C00002008BD024B034A1A600020704700BF9D
:10587C00DC220020CC9D0300002814BF70200020E7
:10588C00704700207047002070477047014B187814
:10589C00704700BF8C42002008B5FCF737FCFF288E
:1058AC000CBFFF20002008BD08B5FFF7F5FFFF284F
:1058BC000CBFA320002008BD002303707047FBF72A
:1058CC007CB810B5182200210446FFF7F9FE2046DB
:1058DC00FEF761FD0020FFF753F8E0720120FFF79F
:1058EC0053F8A0720220FFF74BF82081FFF73EF827
:1058FC00032808D90320FFF743F8E37A03F01F03CA
:10590C0043EA4010E07210BD7FB5182200216846B2
:10591C0033F057FA6846FFF7D4FF6846FBF774FD7F
:10592C00044A05490346022000F0FCFB07B05DF871
:10593C0004FB00BF59F303005FC2030010B5002045
:10594C00FFF71EF8041C4FF0010018BF0124FFF7ED
:10595C0017F80849A222002818BF0146204628F053
:10596C0089FA054A05490346BDE81040022000F0BB
:10597C00D9BB00BF00F8FF07E4B503005FC203000A
:10598C0070B50020FEF7FCFF04460120FEF7F8FF7F
:10599C0005460220FEF7F4FFE4B2C2B2201C2946F1
:1059AC0018BF012028F0BFFA034A04490346BDE89A
:1059BC007040022000F0B6BBABC203005FC2030014
:1059CC000149022000F0AEBBFFC1030008B50C4931
:1059DC000020FFF732F80A48FEF741FD0220094982
:1059EC0000F0BCFB022000F089FB10B1044800F071
:1059FC0001FB05490220BDE8084000F093BB00BF45
:105A0C003E230020F1C1030041BC030010B529F076
:105A1C0003FE044A04490346BDE81040022000F08E
:105A2C0081BB00BFBAB503005FC2030010B50020F4
:105A3C00FEF7A6FF002104464FF0FF30FEF7BCFF37
:105A4C000178A1F162035942E0B25941BDE810401E
:105A5C00FBF780BA08B5FEF704FD03490246BDE822
:105A6C000840012000F05EBBAEC1030008B5FEF794
:105A7C0086FC03490246BDE80840012000F052BBF9
:105A8C00C2C1030010B50020FEF77AFF0121C4B299
:105A9C00A1400023FE224FF6FF702EF06DFE224631
:105AAC00034603490220BDE8104000F03BBB00BF99
:105ABC00D4C1030007B502A8032320F8043D28F045
:105ACC00B5FF04490246022000F02CFB03B05DF840
:105ADC0004FB00BF43C2030008B50020FEF750FFD3
:105AEC00C0B228B104490120BDE8084000F01ABB3F
:105AFC00024B187008BD00BFC0C20300E02200209A
:105B0C0007B56846FBF78CFFFBF79CFD084902467E
:105B1C00012000F023FB684600F06CFAFBF794FDC3
:105B2C0004490246012000F0FDFA03B05DF804FBC5
:105B3C001AC2030033C2030073B50020FEF720FF26
:105B4C00C4B20120FEF71CFFC5B20220FEF71CFFF9
:105B5C0046B2FEF70BFF032812D90320FEF710FF05
:105B6C00C0B2009033462A462146012032F0A4FBF5
:105B7C0040B90949012002B0BDE8704000F0D2BA2A
:105B8C000020EEE70090054B054A0649012000F085
:105B9C00C9FA02B070BD00BF67C203006FC2030038
:105BAC000506040083C2030007B5012032F086FB12
:105BBC00034638B9084A0949012003B05DF804EBE3
:105BCC0000F0B0BA0090044B054A0649012000F0E1
:105BDC00A9FA03B05DF804FB6FC2030098C203007E
:105BEC00DFB5030083C20300037813F0050F37B54C
:105BFC0004460CD04388062B14D1826883885268E3
:105C0C001449127800920220134A00F08BFA237880
:105C1C00012B1DD0104A1149022003B0BDE83040C1
